{
  "contractName": "Badge",
  "abi": [
    {
      "anonymous": false,
      "inputs": [
        {
          "indexed": true,
          "internalType": "bytes32",
          "name": "record",
          "type": "bytes32"
        },
        {
          "indexed": false,
          "internalType": "uint256",
          "name": "timestamp",
          "type": "uint256"
        },
        {
          "indexed": false,
          "internalType": "bool",
          "name": "returnValue",
          "type": "bool"
        }
      ],
      "name": "CertificateIssued",
      "type": "event"
    },
    {
      "constant": true,
      "inputs": [],
      "name": "owner",
      "outputs": [
        {
          "internalType": "address",
          "name": "",
          "type": "address"
        }
      ],
      "payable": false,
      "stateMutability": "view",
      "type": "function"
    },
    {
      "constant": true,
      "inputs": [
        {
          "internalType": "bytes32",
          "name": "",
          "type": "bytes32"
        }
      ],
      "name": "records",
      "outputs": [
        {
          "internalType": "address",
          "name": "",
          "type": "address"
        }
      ],
      "payable": false,
      "stateMutability": "view",
      "type": "function"
    },
    {
      "constant": false,
      "inputs": [
        {
          "internalType": "bytes32",
          "name": "_hash",
          "type": "bytes32"
        }
      ],
      "name": "issueBadge",
      "outputs": [],
      "payable": false,
      "stateMutability": "nonpayable",
      "type": "function"
    },
    {
      "constant": true,
      "inputs": [
        {
          "internalType": "bytes32",
          "name": "certificate",
          "type": "bytes32"
        }
      ],
      "name": "verifyBadges",
      "outputs": [
        {
          "internalType": "bool",
          "name": "",
          "type": "bool"
        }
      ],
      "payable": false,
      "stateMutability": "view",
      "type": "function"
    }
  ],
  "bytecode": "0x6080604052336000806101000a81548173ffffffffffffffffffffffffffffffffffffffff021916908373ffffffffffffffffffffffffffffffffffffffff1602179055506103a0806100536000396000f3fe608060405234801561001057600080fd5b506004361061004c5760003560e01c806301e64725146100515780635ec07a19146100bf5780638da5cb5b146100ed578063ad29db6e14610137575b600080fd5b61007d6004803603602081101561006757600080fd5b810190808035906020019092919050505061017d565b604051808273ffffffffffffffffffffffffffffffffffffffff1673ffffffffffffffffffffffffffffffffffffffff16815260200191505060405180910390f35b6100eb600480360360208110156100d557600080fd5b81019080803590602001909291905050506101b0565b005b6100f56102a9565b604051808273ffffffffffffffffffffffffffffffffffffffff1673ffffffffffffffffffffffffffffffffffffffff16815260200191505060405180910390f35b6101636004803603602081101561014d57600080fd5b81019080803590602001909291905050506102ce565b604051808215151515815260200191505060405180910390f35b60016020528060005260406000206000915054906101000a900473ffffffffffffffffffffffffffffffffffffffff1681565b6000809054906101000a900473ffffffffffffffffffffffffffffffffffffffff1673ffffffffffffffffffffffffffffffffffffffff163373ffffffffffffffffffffffffffffffffffffffff161461020957600080fd5b6000819050336001600083815260200190815260200160002060006101000a81548173ffffffffffffffffffffffffffffffffffffffff021916908373ffffffffffffffffffffffffffffffffffffffff160217905550807fe2f856eb4bdb96dc07c8658ff6dc2faa0cba255b51e9af05a293fc28d74bd8ac42600160405180838152602001821515151581526020019250505060405180910390a25050565b6000809054906101000a900473ffffffffffffffffffffffffffffffffffffffff1681565b60008060009054906101000a900473ffffffffffffffffffffffffffffffffffffffff1673ffffffffffffffffffffffffffffffffffffffff166001600084815260200190815260200160002060009054906101000a900473ffffffffffffffffffffffffffffffffffffffff1673ffffffffffffffffffffffffffffffffffffffff1614156103615760019050610366565b600090505b91905056fea265627a7a72315820df48a224258d260e0be55b9d5b6f9dd47f00a3ea5911217462df6d510c372dd964736f6c63430005100032",
  "source": "pragma solidity ^0.5.0;\n\n\nimport './Issuer.sol';\n\n\ncontract Badge is Issuer {\n  mapping (bytes32 => address) public records;\n\n  event CertificateIssued(bytes32 indexed record, uint256 timestamp, bool returnValue);\n\n  function issueBadge(bytes32 _hash) external onlyOwner {\n\n    bytes32 certificate = _hash;\n\n    records[certificate] = msg.sender;\n    emit CertificateIssued(certificate, block.timestamp, true);\n  }\n\n\n  function verifyBadges(bytes32 certificate) external view returns (bool) {\n\n      if (records[certificate] == owner) {\n        return true;\n      }\n        return false;\n  }\n}\n\n\n",
  "sourcePath": "/home/johndavis/Desktop/hack/openblock/Deploy/contracts/Badge.sol",
  "compiler": {
    "name": "solc",
    "version": "0.5.16+commit.9c3226ce.Emscripten.clang"
  },
  "schemaVersion": "3.2.0",
  "updatedAt": "2020-06-21T10:52:08.607Z",
  "devdoc": {
    "methods": {}
  },
  "userdoc": {
    "methods": {}
  }
}